:020000040800F2
:1000000008490020F5010008016B0008AD5B0008FD
:1000100021610008091D0008BF93000800000000CE
:100020000000000000000000000000004572000811
:100030001D23000800000000176E0008E17300088F
:100040000F0200080F0200080F0200080F0200084C
:100050000F0200080F0200080F0200080F0200083C
:10006000B9230008BF230008C52300080F020008B9
:100070000F0200080F0200080F0200080F0200081C
:100080000F0200080F0200080F0200080F0200080C
:10009000499300080F0200080F020008CB23000854
:1000A0000F0200080F0200080F0200085D7400082C
:1000B00069740008757400080F0200080F02000838
:1000C0000F0200080F0200080F0200080F020008CC
:1000D0000F020008017900080F0200080F02000853
:1000E0000F0200080F0200080F02000800F002F8DB
:1000F00000F070F80AA090E8000C82448344AAF152
:100100000107DA4501D100F065F8AFF2090EBAE84F
:100110000F0013F0010F18BFFB1A43F0010318473B
:100120000CD000002CD000000A444FF0000C10F856
:10013000013B13F0070408BF10F8014B1D1108BF65
:1001400010F8015B641E05D010F8016B641E01F805
:10015000016BF9D113F0080F1EBF10F8014BAD1C55
:100160000C1B09D16D1E58BF01F801CBFAD505E073
:1001700014F8016B01F8016B6D1EF9D59142D6D3CD
:10018000704700000023002400250026103A28BFF5
:1001900078C1FBD8520728BF30C148BF0B607047F9
:1001A000642900F09780782900F0D0800020704703
:1001B0001FB500F091FB0400002000210AF0EEF8CA
:1001C000401C6060002000210AF0FEF8E0601FBDC6
:1001D00010B510BD00F0E4FB1146FFF7E9FF09F090
:1001E000D3FA00F02BFC03B4FFF7F2FF03BC00F0DE
:1001F0005DFF00000948804709480047FEE7FEE729
:10020000FEE7FEE7FEE7FEE7FEE7FEE7FEE7FEE7C6
:1002100004480549054A064B704700005B74000816
:10022000ED00000808430020084900200845002090
:1002300008450020B2F120030AD5C2F1200320FABC
:1002400002F001FA03F321FA02F140EA03007047D9
:1002500021FA03F04FF00001704700000FB41CB505
:10026000074B06AA7B4469460090059800F0BBFA4C
:100270000020694600F0CAFA1CBC5DF814FB0000BF
:10028000A505000070B5044685690068C10601D562
:10029000302600E02026C00707D070BDD4E9012138
:1002A00030469047206A401C20626D1EF6D570BD16
:1002B00070B5044685690078C00707D170BDD4E9E0
:1002C000012120209047206A401C20626D1EF6D537
:1002D00070BD00002DE9F041064600241068752924
:1002E000314616A510D0AFF30080002802DA404254
:1002F00013A507E031688A0701D512A502E0490776
:1003000004D511A5012401E0AFF3008000210A22E9
:1003100006F1240709E0B0FBF2FCB0FBF2F302FBAC
:100320001C00303078541846491C0028F3D123466D
:100330002A463046BDE8F04100F0F7B90000000061
:100340002D0000002B0000002000000070B50446C6
:100350000D4621461068AFF300802188090502D5BB
:100360000F4A7A4402E00E4A7A440E32002104F128
:10037000240305E000F00F060009965D5E54491C59
:100380000028F7D120780023000704D5702D02D073
:1003900009B1022311322046BDE8704000F0C5B912
:1003A00066CC00002DE9F05F894604464FF0000A54
:1003B000DFF824B1FB44C0F820A02046E16888475C
:1003C00000287DD0252806D0D4E901219047206A55
:1003D000401C2062F1E700255F462046E16888471F
:1003E0002028064607DB312E05D2B81910F8200C5C
:1003F00008B10543F1E7A80701D525F00405C4F8C5
:100400001CA00027C4F818A02A2E09D0304609F0F5
:10041000E2F838B304EB8708303EC8F8186019E0FA
:1004200059F8041B204604EB87029161E168884774
:10043000012F064618D1E069002820DA25F02005B2
:100440001DE0D8F8180000EB800006EB40003038C3
:10045000C8F818002046E1688847064609F0BBF84E
:100460000028EED1012F0AD02E2E08D12046E168B7
:1004700088477F1C0646022F45F02005C4DBA06993
:10048000002803DA404245F00105A061E80701D0E9
:1004900025F01005A6B1A6F14100192802D8203692
:1004A00045F400654A463146204625604D46FFF733
:1004B00077FE60B1012807D0ED1D25F0070000E0B0
:1004C00007E000F1080978E705F1040975E730460F
:1004D0007AE7206ABDE8F09F3CCC00002DE9F047A8
:1004E00091460F4680460446002614F8015B2DB164
:1004F00000F004F90068405DC007F6D12B2D02D052
:100500002D2D18D0641E4A463946204600F083F946
:1005100027B13968A14201D1C7F800804FF0020429
:1005200071050BD54042002803DD00F0EFF80460B0
:10053000A007BDE8F08746F48066E4E70028F8DA13
:1005400000F0E4F804606FF00040F2E7421E12F899
:10055000013F002BFBD111F8013B002B02F8013BBE
:10056000F9D17047032A40F2308010F0030C00F0FC
:10057000158011F8013BBCF1020F624498BF11F8DD
:1005800001CB00F8013B38BF11F8013BA2F1040296
:1005900098BF00F801CB38BF00F8013B11F003030E
:1005A00000F02580083AC0F0088051F8043B083A72
:1005B00051F804CBA0E80810F5E7121D5CBF51F814
:1005C000043B40F8043BAFF30080D20724BF11F88E
:1005D000013B11F801CB48BF11F8012B24BF00F8F3
:1005E000013B00F801CB48BF00F8012B704710B564
:1005F000203AC0F00B80B1E81850203AA0E818501B
:10060000B1E81850A0E81850BFF4F5AF5FEA027CDB
:1006100024BFB1E81850A0E8185044BF18C918C04A
:10062000BDE810405FEA827C24BF51F8043B40F8EB
:10063000043B08BF7047D20728BF31F8023B48BFD0
:1006400011F8012B28BF20F8023B48BF00F8012B0E
:10065000704702F0FF0343EA032242EA024200F03D
:1006600002B84FF000020429C0F0128010F0030C11
:1006700000F01B80CCF1040CBCF1020F18BF00F895
:10068000012BA8BF20F8022BA1EB0C0100F00DB844
:100690005FEAC17C24BF00F8012B00F8012B48BFA2
:1006A00000F8012B70474FF0000200B51346944646
:1006B0009646203922BFA0E80C50A0E80C50B1F1BA
:1006C0002001BFF4F7AF090728BFA0E80C5048BFCE
:1006D0000CC05DF804EB890028BF40F8042B08BF6C
:1006E000704748BF20F8022B11F0804F18BF00F868
:1006F000012B7047704770477047000010B500F03D
:10070000EBF8001D10BD00BF959C0000004870472D
:10071000A842002010B5FFF7F9FF006810BD10B522
:100720000446FFF7F3FF046010BD2DE9F0470D46C6
:1007300099469246044600F124080168880604D5CB
:10074000E06921F01001216000E00120A84201DDF4
:10075000471B00E00027A1697A1902EB0900081A7B
:10076000A0612078C00602D42046FFF78BFD00264A
:1007700008E0D4E901211AF806009047206A401CDD
:10078000761C20624E45F4DB2078C0060AD5204650
:10079000FFF778FD06E0D4E9012130209047206A78
:1007A000401C2062381EA7F10107F4DC07E0D4E901
:1007B000012118F805009047206A401C2062281E7D
:1007C000A5F10105F3DC2046FFF772FD2078000655
:1007D00002D50220BDE8F0870120FBE701694A1C31
:1007E00002610878704700B58FB0CDE90131002172
:1007F000059105497944CDE9031011466846FFF794
:10080000D1FD0FB000BD0000E5FFFFFF0A6802F850
:10081000010B0A6070472DE9F05F824615468B4652
:1008200000270AF10104B9460078302801D09DB1B3
:1008300013E014F8010B0127782803D0582801D0C1
:1008400045B10AE00DB1102D07D1002714F8010BB6
:10085000102502E0082500E00A250026B0460EE03B
:1008600005FB080005FB06F101271FFA80F801EBE4
:100870001046B6F5803F00D3B94614F8010B29465F
:1008800000F02EF80028EBDABBF1000F05D00FB115
:10089000641E00E05446CBF80040B9F1000F06D0CA
:1008A000FFF734FF02210160C81EBDE8F09F48EA4F
:1008B0000640FAE77CB5054600236846CDE90033DB
:1008C00000F03AF86946284608F014FE7CBD0000A6
:1008D00000487047A842002000487047C8420020E6
:1008E0003A2800D2303820F02002412A01D3A2F168
:1008F0003700884201D34FF0FF3070470FB4002318
:1009000000B589B00CA900910B99CB60214B7B44B9
:100910000693214B7B44079304236FF00042CDE9FB
:1009200001321E4A7A446B460892024600200AF0C1
:100930003FFF09B05DF814FB70B506464FF0FF307D
:1009400015460C46324686B00091CDE90101694654
:100950000020049004A8FFF7D1FF02460498211854
:1009600025B108B1084600E0204628600498002818
:100970000DD0002A02DD0098884208D03246081BBC
:1009800069460094CDE9010404A8FFF7B7FF06B05B
:1009900070BD0000EB00000003010000C300000078
:1009A0007546FFF795FFAE4605006946534620F0B1
:1009B0000700854618B020B5FFF72AFCBDE82040A7
:1009C0004FF000064FF000074FF000084FF0000B0B
:1009D00021F00701AC46ACE8C009ACE8C009ACE8BE
:1009E000C009ACE8C0098D46704710B50446FFF752
:1009F00085FE0068005D00F0010010BD426842B154
:100A0000016811F8013B23B1521EC0E900121846DB
:100A100070470121C160881E704742685AB1C3689F
:100A2000016843B983688B4205D0491E521CC0E956
:100A30000012002070474FF0FF30704710B5044699
:100A4000AFF300802046BDE81040FFF7CCBB0000AC
:100A50004FF0013C50F8042B51F8043B9A4221D14D
:100A6000A2EB0C03934313EACC1317D150F8042BD9
:100A700051F8043B9A4215D1A2EB0C03934313EABD
:100A8000CC130BD150F8042B51F8043B9A4209D1F6
:100A9000A2EB0C03934313EACC13DBD04FF000001E
:100AA000704700BFD01A01BAB1FA81F101F0180104
:100AB00022FA01F0CB40C1F12001DBB2C0B2C01A72
:100AC0002CFA01F3D11A914311EAC311E6D1704710
:100AD0002DE9FF4F06468BB00878FF2806D0491C49
:100AE0002D2805D000244FF0000908E000200CE07C
:100AF0000124F8E709EB8903491C00EB4309087856
:100B0000FF28F7D114B1C9F1000081461078002503
:100B10002C46AA4629462D2801D02B2804D1521C48
:100B20002D2813D0002082468B461078FF280FD046
:100B30004FF0000C0A21521CA5FB017804FB018137
:100B400005FB0C11C5194BEB0104EEE70120EAE7A8
:100B5000002108464FF00000BAF1000F02D000EB70
:100B600080004008C0F38157012F01DD4FF0FF37AF
:100B70000E9955EA040009EB01080BD04FF0020969
:100B800018F5FA7F16DA4FEACA70002F706008DD98
:100B9000012007E04FEACA70C6E900B00FB0BDE817
:100BA000F08F00203060FFF7B1FDC0F800901821F1
:100BB000084616E0B8F5FA7F18DD002F02DAF7488C
:100BC000784401E0F6487844D0E90010C6E9001006
:100BD00040EACA707060FFF799FDC0F800901421D8
:100BE00008460FB0BDE8F04F0AF07FBD002108466F
:100BF0004FF00000B8F10001099002DAC7F10002DD
:100C000000E03A4601DAC8F1000106A800F0DCF97C
:100C100006AB93E8070003AB83E8070044F23E000D
:100C20005BEA04010090584604D144F21E012C46B0
:100C30005D460091210C0904014306D1009924046A
:100C400044EA15442D041039009104F07F4101431A
:100C500006D10099240244EA15642D020839009156
:100C600004F07041014306D10099240144EA15744F
:100C70002D01091F009104F04041014306D1009964
:100C8000A40044EA9574AD00891E009104F000416F
:100C9000084304D100986D196441401E00904FF044
:100CA00001033A466846B8F1000FCDE9014503A9B2
:100CB00002DD00F0CAFE01E000F09DFEBAF1000F77
:100CC00004460D4601D084F00044002108464FF050
:100CD0000000099940F2FF77484010F00C0F07D14F
:100CE00024F00040284303D0C4F30A50B84212D184
:100CF000FFF70CFDC0F80090C4F30A50B8420AD1C7
:100D0000A8487844D0E90010C6E9001004F000417A
:100D10000843706042E7C6E900543FE72DE9FF4F02
:100D20001F464FF0000A4FF0FF38454691B0D7E913
:100D30000146CDF83CA0FFF7CFFDC0680168405CDC
:100D40001090B96912986D1C8847396A81468847A6
:100D50000028F6D1B9F1FF3F0AD0002E24F4D06468
:100D600011DDB9F12B0F08D0B9F12D0F0BD102E035
:100D7000404615B013E744F48064B96912986D1CBD
:100D80008847761E8146600504A901D52D2000E024
:100D90002B20002E01F1010B0DF130088DF8100011
:100DA0003FDDB9F1690F08D0B9F1490F05D0B9F1AC
:100DB0006E0F02D0B9F14E0F1CD13B4601A8009531
:100DC00080E85002DDE912126FF002000AF0F4FC34
:100DD000C11CCED10EE0B96912986D1C88478146BE
:100DE0001398761E44F4007405600F98401C002E82
:100DF0000F9016DDB9F1300FEDD0B9F1780F02D0B8
:100E0000B9F1580F0DD10F9801280AD13B46CDE911
:100E10000054DDE91212001F02960AF0CBFCC11C3F
:100E2000A7D1109989453ED144F0800406E013997A
:100E3000681CAAF1010A44F400740860B9696D1CC9
:100E40001298761E884730288146F0D02BE0109902
:100E5000894505D1200603D4761E44F0800418E0AD
:100E6000484608F0B8FB08B3761E0DF123018B4508
:100E700044F4007408D2A9F130000BF8010B2006ED
:100E800007D5AAF1010003E0200602D40AF101000F
:100E90008246A00502D51399681C0860B9691298AA
:100EA0006D1C88478146002ED1DC53E0002E51DDB9
:100EB000B9F1650F02D0B9F1450F4BD1A00549D565
:100EC000B9696D1C1298761E24F440748847002E70
:100ED00081460CDD2B2804D0B9F12D0F07D144F445
:100EE0008074B96912986D1C8847761E8146E005AA
:100EF00001D52D2100E02B2108F8011BCDF8008041
:100F000021E0761E0DF13901884544F400740CD2BD
:100F1000A9F1300010F0FF0088F8000002D100991C
:100F2000884509D908F1010806E0E00501D51E4809
:100F300001E042F20F708246B96912986D1C884731
:100F4000814613980560002E04DD484608F043FBF7
:100F50000028D6D1F96912988847FF2053468BF8AC
:100F6000000088F8000000200A900B9004AA0CA949
:100F70000AA8FFF7ADFDA00502D46FF00100F8E666
:100F800014F0240F12D0E0071CD13868DDE90A12F2
:100F9000031D3B600068C0E9001213E090C500002B
:100FA00082C5000046C40000F1D8FFFF0AA96846C8
:100FB00008F0A0FAE00705D13868009A011D3960F1
:100FC000006802602846D4E62DE9F04781461646BF
:100FD0008AB0354878440DC88DE80D003248784411
:100FE000801C03AC0DC884E80D0041F69B3008441A
:100FF000372190FBF1F290FBF1F5A5F1800501FBA3
:1010000012041B3C02D56442012000E00020DFF8FE
:1010100098A080460027FA44AAF1BE0A0EE0E00735
:101020000AD03246684607EB470101230AEB8101EB
:1010300000F0F6FC8DE8070064107F1C002CEED158
:10104000194F7F44AE3F19E0E80715D007EB0410B5
:101050000DF1180A90E80E008AE80E00C068F04210
:1010600001D1981908903246012306A903A800F07F
:10107000D7FC03AB83E807006D10641C002DE3D19F
:101080004FF0010332466946B8F1000F03A802D0C1
:1010900000F09CFC01E000F0C3FCC9E90001C9F8C4
:1010A00008200AB0BDE8F0873CC1000001491820C3
:1010B000ABBEFEE7260002002DE9FF4F1F464FF0B2
:1010C0003C0987B04FF00042DDE9141001F101083E
:1010D000DDF858A002EA40500390002005908346B6
:1010E000054604460490B969461E08988847AAF147
:1010F000010A0290BAF1000F3BDD02982E2815D0AC
:101100001021FFF7EDFB00282EDB4FF0010B0599B6
:10111000014317D0B9F1000F0BDB4A46C11700F0AD
:10112000F6F905430C43A9F1040905E001200490F8
:101130000BE008B145F0010501200590049820B9A5
:10114000361D02E0049800B1361FB969089808F10D
:1011500001088847BBF1000FAAF1010A0290C9D02B
:101160000999C1F80080C5E70298702808D0502876
:1011700006D0F96908988847BBF1000F14D04FE0FA
:10118000002002900120BBF1000F049009D0B96942
:10119000089808F101088847AAF10109B9F1000F80
:1011A00007DCF969089888476FF001000BB0BDE8CB
:1011B000F08F2B2804D02D280CD14FF0FF30049055
:1011C000B969089808F101088847A9F10109B9F13E
:1011D000000FE6DD411CE4D00A21FFF781FB002867
:1011E000DFDB029908F1010801EB810100EB41000E
:1011F0000290B969089888470A21FFF771FB099A9C
:10120000A9F10109B9F1000FC2F8008001DD002841
:10121000E7DAF969089888470499029800FB0166A3
:1012200055EA040004D004F04041090002D006E071
:10123000039898E0A40044EA9574AD00B61E04F04B
:101240000041080002D16D196441761E159810F016
:10125000240F03D04FF00B095C4803E04FF028093E
:101260006FF07D008246564507DAAAEB06018944F5
:10127000B9F1410F01DD4FF0410901200021A9F131
:10128000010200F044F9024628400B462140084381
:1012900001D0012100E00021501E029143F1FF31F5
:1012A00028402140084301D0012000E0002002999D
:1012B000834651EA0B014FD0002108464FF0000051
:1012C000039900F4400039B100EB80004FF4400175
:1012D00000EBD07001EA60008015012802DD4FF0BC
:1012E000FF3000E013D0401C36D0029860B3BBF151
:1012F000000F0CD14A460120002100F008F92840D7
:101300002140084301D0012000E00020E0B101208D
:101310004A46002100F0FBF8034640190A466141A5
:101320002D1A8C4111D3B9F1400F09DD159810F039
:10133000240F02D0AAF1340603E0AAF1170600E058
:10134000761C00254FF0004406E05B1E42F1FF32A0
:1013500020EA030521EA0204CAF10100B04206DADC
:101360001B49039808430190002000900EE0039A67
:10137000C4F3D321E80A0A43164940EA44500A4319
:101380003146CDE90002684608F01AF9159810F0C8
:10139000240F0BD01598C00715D13868DDE900126D
:1013A000031D3B600068C0E900120CE002A869461A
:1013B00008F0A0F81598C00705D13868029A011DF9
:1013C0003960006802604046F0E6000002FCFFFF62
:1013D0000000F07F0000F03F2DE9FF4F92461D46D0
:1013E00085B04FF00041DDE9124BDDE914727F1E3C
:1013F00001EA4B50414940F0FF4940EA0108002111
:1014000022F020004928049102D04E2828D04CE038
:101410003BA0012607C88DE80700A9690698641C4F
:1014200088477F1E014606D41DF8060018B121F03A
:10143000200181420BD0E96906988847032E34D0F9
:10144000082E32D06FF0010009B0BDE8F08F761C95
:10145000032E01D0082EE0D1601CCAF80000DCE7A2
:10146000A9690698641C88477F1E2AD420F02000B2
:10147000412826D1A9690698641C88477F1E20D47C
:1014800020F020004E281CD1A9690698641C8847CA
:101490007F1E48F4002849F48009CAF8004001D4AE
:1014A000282806D0E969069888475FEACB7012D0F1
:1014B00022E0A9690698641C88477F1E01D4002891
:1014C00003DAE96906988847BCE72928F1D1641C4A
:1014D000CAF80040E9E71BF0240F07D028680499F8
:1014E000031D2B600068C0E9001805E02868021D94
:1014F0002A600068C0F800902046A5E70000F07F51
:10150000494E46494E495459000000007047B2F117
:1015100020030AD5C2F1200301FA02F120FA03F3F5
:1015200000FA02F041EA0301704700FA03F14FF0BC
:101530000000704720F07F4C80EA030023F07F47D3
:10154000ACEB070303F57C5300F0004003F1FF030D
:101550002DE980494FEA154B09B44FEA144325EAB7
:101560000B4E24EA03480FF2042606EB1327490822
:101570003E785FEA320203FB0667C7F5000707FB08
:1015800006F64FEA54374FEAD64606F1020607FB45
:10159000066CCCF1005C4FEA1C472CEA074C07FBB9
:1015A00006F40CFB06F504EB15464FEA961634BF1D
:1015B00000204FF000404FEAD13706FB07FC4FEA0E
:1015C0001C4C0CFB0BF7D21B03FB0CF761EB070168
:1015D0000CFB0EF7B0EB074072EB17420CFB08F761
:1015E00034BFA2EB0742B2EB074261EB17414FEA6F
:1015F0000C444FEA910706FB07FC4FEA1C4C0CFB1E
:101600000BF7B0EBC74072EB573203FB0CF734BF5C
:10161000A2EBC742B2EBC74261EB57310CFB0EF7AE
:10162000B0EBC70072EB57720CFB08F734BFA2EBAC
:10163000C702B2EBC70261EB5771039F4FEA8161AA
:1016400041EA921104EBCC044FEAD1374FEA8262AF
:1016500006FB07FC42EA90124FEA80604FEA1C4CFE
:101660000CFB0BF7D21B03FB0CF761EB07010CFB28
:101670000EF7B0EB074072EB17420CFB08F734BFD4
:10168000A2EB0742B2EB074261EB17414FEA8C55E0
:101690004FEA910704EB9C2406FB07FC4FEA1C4C25
:1016A0000CFB0BF7B0EBC74072EB573203FB0CF7A8
:1016B00034BFA2EBC742B2EBC74261EB57310CFB20
:1016C0000EF7B0EBC70072EB57720CFB08F734BF94
:1016D000A2EBC702B2EBC70261EB577115EB4C25C9
:1016E0004FEA816141EA92114FEA82624FEAD137B3
:1016F00042EA901206FB07FC44F100044FEA8060C6
:101700004FEA1C4C0CFB0BF7D21B03FB0CF761EBF5
:1017100007010CFB0EF7B0EB074072EB17420CFB16
:1017200008F734BFA2EB0742B2EB074261EB174167
:1017300015EB1C154FEA813141EA92414FEA8232A2
:1017400042EA90424FEA80304FEA0C7644F10004BE
:1017500048EA03434EEA0B484FF0000EB2EB080C88
:1017600071EB030724BF624639464EEB0E0E4FF075
:10177000000B0018524149414BEB0B0BB2EB080C2C
:1017800071EB03077BF1000B24BF624639464EEB39
:101790000E0E4FF0000B0018524149414BEB0B0B62
:1017A000B2EB080C71EB03077BF1000B24BF624620
:1017B00039464EEB0E0E51EA020718BF46F00106FD
:1017C00016EB0E7655F1000254F1000103D5BDE889
:1017D0008901BDE80088BDE88901BDE80048B61967
:1017E000524141EB0101A3F10103704780807F7EEC
:1017F0007D7C7B7A79787776767574737271717087
:101800006F6E6E6D6C6C6B6A6A6968686766666538
:101810006464636362616160605F5F5E5E5D5D5CC6
:101820005C5B5B5A5A595958585757565655555537
:101830005454535352525251515050504F4F4F4E97
:101840004E4D4D4D4C4C4C4B4B4B4A4A4A494949E5
:101850004848484747474746464645454544444427
:1018600044434343434242424241414146EA0646E1
:10187000A3F570534FEA164646EA42564FEAD22283
:1018800042EA415210B54FEAD121A3F1010300F021
:101890002FF820F0004000F1020C00F0004701EBAF
:1018A00000501146BCF5006F40EA070000D210BDA1
:1018B000BAF1000F0AD01CB503B44FF004004FF08A
:1018C00004014FF000000FBCBDE810404FF00001D4
:1018D000BBF1010FB9BF04484FF0FF3103480021AD
:1018E00040EA070010BD00BFFFFFEF7F0000F07F60
:1018F000002B9C4630D477002BD01CB54FEA37071D
:1019000003B44FF010004FF01001BAF1000F06D0F1
:10191000BCF1000FDCBF40F0080040F008014FF0C0
:1019200000000FBCBDE810400BF1010BBBF1010F33
:1019300008BF5FEA170722BF12F1010211F101018E
:101940004FF0004143F1000300F0004043EA000083
:101950007047F9D35708D0E746EA064613F1400F1F
:101960004FEA16461FDD13F1200FDFBF16430A466C
:10197000002120335B42BED0C3F1200746EA064671
:1019800002FA07F74FEA164646EA0706C3F12007B0
:1019900022FA03F201FA07F721FA03F14FF00003EC
:1019A00042EA0702A7E746EA020646EA06464FEA87
:1019B000164646EA0106BCBF46EA0646360C4FF01C
:1019C00000034FF000024FF0000194E72DE9804C36
:1019D0009A46934670B491E8380007C831EA400C43
:1019E00048BF34EA430C03D5FFF7A4FDFFF780FF9F
:1019F000F0BCBDE8008C2DE9804C9A46934670B44B
:101A000091E8380007C831EA400C48BF34EA430C7B
:101A100003D5FFF78FFDFFF729FFF0BCBDE8008C71
:101A20002DE9804C9A46934670B491E8380007C877
:101A300010F0804F08BF13F0804F03D100F01AF868
:101A4000FFF756FFF0BCBDE8008C2DE9804C9A46AC
:101A5000934670B491E8380007C810F0804F08BF73
:101A600013F0804F03D100F005F8FFF7FFFEF0BC44
:101A7000BDE8008C20F07F4780EA030023F07F4C14
:101A800007EB0C03A3F57C5300F00040A3F1FE0329
:101A900092F0000F00F0B38095F0000F00F0778017
:101AA0002DE901494FEA11404FEA144621EA004866
:101AB00000FB06FC24EA064708FB06F607FB08F8CD
:101AC00000FB07F718EB06484CEB164C4FEA124B9D
:101AD00018EB07484FEA15464CEB174022EA0B4E2D
:101AE0000BFB06FC25EA06470EFB06F607FB0EFE7F
:101AF0000BFB07F71EEB064E4CEB164C4FF00006A7
:101B00001EEB074E4CEB174B18EB0B0840F1000097
:101B100018EB0E0B58EB000840F100008F1A4FF045
:101B200000013CBFC943661B14BFB5EB040C002188
:101B30003CBFC943F61B4FEA17444EEA8E0E27EA14
:101B400004454FEA1C4704FB07622CEA074C05FBDF
:101B500007F70CFB05F604FB0CFC16EB074642EB03
:101B6000174216EB0C4642EB1C421BEB060658EBE9
:101B70000202414146EA9E0601D5BDE80189B61937
:101B8000524141EB0101A3F10103BDE801894FEA94
:101B900014454FEA114724EA054621EA074C05FBA4
:101BA00007F406FB07F70CFB06F105FB0CFC11EB39
:101BB000074144EB17444FEA124711EB0C4144EB49
:101BC0001C4422EA074C05FB07F206FB07F70CFB57
:101BD00006F605FB0CFC16EB074642EB174216EB2C
:101BE0000C4642EB1C456A1854F1000148BF70478F
:101BF000B619524141EB0101A3F10103704795F081
:101C0000000F37D04FEA11424FEA144721EA02464B
:101C100024EA074C02FB07F106FB07F70CFB06F46E
:101C200002FB0CFC14EB074441EB17414FEA15474C
:101C300014EB0C4441EB1C4125EA074C02FB07F571
:101C400006FB07F70CFB06F602FB0CFC16EB07463F
:101C500045EB174516EB0C4645EB1C42121951F1AA
:101C6000000148BF7047B619524141EB0101A3F191
:101C7000010370474FEA14454FEA114724EA05462D
:101C800021EA074C05FB07F106FB07F70CFB06F200
:101C90004FF0000605FB0CFC12EB074241EB17412D
:101CA00012EB0C4251EB1C4148BF7047921841EBBC
:101CB0000101A3F1010370472DE9F0410646114CE3
:101CC000002005462065304609F0C8FB80465027B5
:101CD0004046216D09F059FC0ED296FBF7F009F051
:101CE000BDFB216D09F06EFA206500F0B3FA05F036
:101CF000D1F8012000F0ACFC6D1C502DE8DBBDE8F4
:101D0000F081000018000020FEE704284FF00000DA
:101D1000704700207047000010B5002204490548B4
:101D200005F0FFFE0449034805F0F5FE002010BD54
:101D30005C3D0020583800201C3D00202DE9F05F5C
:101D400005460C462946944805F0E5FE924805F004
:101D5000C1FE40219148FEF784FC247829462246A2
:101D60008E48FEF7FFFB21462846FEF77AFC8B4D96
:101D7000DFF82C8200242878492843D18948046060
:101D800044608460C4600461874888A1026889480F
:101D9000FEF764FA85A18848D8F80020FEF75EFABD
:101DA000864882A102688648FEF758FA854E7FA1D0
:101DB00085483268FEF752FA84A17A48FEF7C6FBDE
:101DC0007C497848FEF7C2FB7B497648FEF7BEFBAC
:101DD0007B497448FEF7BAFB7B497248FEF7B6FBB5
:101DE0004021704800F010F97948532133684822A7
:101DF00093B1046044600170427031218170082108
:101E000000F002F92878DFF8CC91734E734FDFF8B9
:101E1000D0A146280BD03FE00460446001704270BE
:101E20003021817008216A4800F0EEF8EAE795F861
:101E300001E001216B4A6C4BDFF8B0C1DFF8B0B1B3
:101E4000BEF1310F06D0BEF1320F0ED0BEF1330F0E
:101E500016D021E011601C60CCF80040CBF80040A7
:101E6000C9F8004031603C6016E014601960CCF89D
:101E70000040CBF80040CAF80040346039600BE005
:101E800014601C60CCF80010CBF80040CAF8004089
:101E9000C9F8004034603C60482822D105F01CF8A5
:101EA0006878312805D105F0A7F903F031FA00F080
:101EB0000BFA687832280BD105F09EF9CAF8004079
:101EC000C9F8004034603C6003F022FA00F0EAF800
:101ED0006878332805D105F08FF903F019FA00F07E
:101EE000E1F82878532854D1687853281FD104F09A
:101EF000F3FF4048A9780170E97841702979817031
:101F00006979C170002108F03FFA09F08BFA26497F
:101F10000860394981FB00104111A1EBE07009F024
:101F20009DFA3649086000F0DFF903F04FFC68784D
:101F300043282ED104F0D0FF3148A9780170E97808
:101F40004170297981706979C1700830A97901706F
:101F5000E9794170297A8170697AC1701022002173
:101F60000838FEF7BBFAC8F8000010220021254807
:101F7000FEF7B4FA114C2060D8F8000009F06EFAB0
:101F800000F030F9206809F069FAD8F8001000F084
:101F900061F80020BDE8F09F58380020F837002095
:101FA00094000020500800206400002025303458A0
:101FB00000000000840100208C0100209800002017
:101FC00094010020800000209C0100204C000000B3
:101FD000D4080020B0000020400000204400002071
:101FE000AC0000209C000020A0000020A4000020E5
:101FF000A8000020A40100201F85EB51B80000209C
:10200000AC010020B401002010B50A460849D1F8FF
:10201000B812D1F81412002901D0012010BD0146D8
:10202000034805F07EFDBDE81040014805F0F4BD11
:10203000583800200648002141608160C16001617C
:1020400041618161C161016201214162704700000B
:102050001800002070B50446084608F07CFC0022F9
:102060000C4B08F0B5FA02460B4600200A4908F06E
:10207000AFFA06460D460949204609F011F909F064
:1020800075F832462B4608F0B9FC08F035FC0449D7
:10209000086570BD004CED40000014400000A040F9
:1020A0009800002006480021012241608160C0E9BB
:1020B000031241618161C1610162416270470000A8
:1020C000180000202DE9F041134D0F460646294621
:1020D00009F0E6F809F0A6F9104CE062304609F084
:1020E00045F80F4E0022334607F09EFA08F004FC34
:1020F00020632946384609F0D3F809F093F9606364
:10210000384609F033F80022334607F08DFA08F01C
:10211000F3FBA063BDE8F08100007A449800002042
:1021200000408F4006480021012241608160C1606B
:102130000161C0E90512C16101624162704700009E
:102140001800002006480021012241608160C16022
:102150000161C0E90521C16101624162704700006F
:102160001800002006480021012241608160C16002
:10217000016141618161C0E907124162704700005D
:102180001800002070B505460A4909F089F809F0E1
:1021900049F9094C6062284608F0E8FF0022074B25
:1021A00007F042FA0022064B08F012FA08F0A4FBEE
:1021B000A06270BD00007A449800002000408F406B
:1021C0000000244006480021012241608160C16076
:1021D00001614161C0E9061201624162704700007D
:1021E0001800002010B508F0C1FF0022114B08F0C4
:1021F000EFF902460B4600200F4908F0E9F90022EA
:102200000E4B08F0E5F908F077FB0D4CA06408F0E0
:10221000A2FB0C4A0C4B08F0F1FB00220B4B08F020
:10222000EDFB00220A4B08F0D3F908F065FBA0672C
:1022300010BD0000389C8C41000014400040AF40AD
:10224000180000208DEDB5A0F7C6B03E882A914158
:102250000000264010B508F089FF0022124B08F05C
:10226000B7F902460B460020104908F0B1F90022E8
:102270000F4B08F0ADF908F03FFB0E49886408F0F9
:102280006AFB0D4A0D4B08F0B9FB00220C4B08F01D
:10229000B5FB00220B4B08F09BF908F02DFB05491C
:1022A0008031C86110BD0000389C8C410000144092
:1022B0000040AF40180000208DEDB5A0F7C6B03E3D
:1022C000882A9141000026400648012141600021F2
:1022D0008160C160016141618161C16101624162EE
:1022E000704700001800002070B50546084908F046
:1022F000D7FF09F097F8074C6062284608F036FFD0
:102300000022054B07F090F908F0F6FAA06270BDC4
:102310000000204198000020000024407047000089
:102320002DE9F047814609F099F80F4C00254FF44C
:1023300000074FF050082065266DBE420EDB99FB6A
:10234000F8F009F08BF8314609F050F92065FFF7F5
:1023500081FF04F09FFD012000F07AF96D1C502DE3
:10236000EADBBDE8F0870000180000202DE9F04707
:10237000814609F073F80F4C00254FF400074FF029
:1023800032082065266DBE420EDB99FBF8F009F09D
:1023900065F8314609F02AF92065FFF75BFF04F084
:1023A00079FD012000F054F96D1C322DEADBBDE807
:1023B000F087000018000020042000F0C1BA0820B7
:1023C00000F0BEBA102000F0BBBA10B5202000F01B
:1023D000B7FA402000F0B4FABDE81040802000F0C9
:1023E000AFBA72B6FEE7000006490020C861064891
:1023F000016941F004010161016941F0400101619D
:10240000704700003838002000200240064A0021B2
:10241000D16106490A6942F002020A61486108690D
:1024200040F040000861704738380020002002402A
:10243000044B0022DA61044A136943F0010313617B
:1024400001807047383800200020024014480022E4
:10245000C168CB06134904D5CA6942F00202CA61B9
:102460001022C3685B0705D5CB6943F00103CB613C
:1024700042F00402C369DB0707D0CB6943F00403D1
:10248000CB61C16921F00101C161A2F580710139FF
:1024900001D0C2607047C16921F00101C16170477C
:1024A000002002403838002070B5054600F04EFB91
:1024B0000646114C09E0681C07D025B100F046FB28
:1024C000801BA84201D9032070BDE068C007F2D18B
:1024D000E068800601D52020E060E068C00605D4F1
:1024E000E069C00702D1E068400703D5FFF7AEFFFF
:1024F000012070BD002070BD0020024070B586B084
:1025000015460E46044600F053F9311B0020491CC5
:10251000890A02940090CDE9031004A9684600F0EE
:10252000A9F82A4600232146022000F001F900F014
:10253000F5F806B070BD000070B50B480168001DCD
:102540000568001D0068084400280CD0074C0822CC
:10255000A11C03F05CFC04F112012846BDE87040A8
:10256000042203F054BC70BDE8F7FF1F580100209F
:1025700010B590F821100022022905D004218163B2
:1025800080F82020012010BD01680B6823F00E03A5
:102590000B6001680B6823F001030B6090F840307A
:1025A000C46B012101FA03F3636080F8211080F805
:1025B0002020104610BD000010B590F82110002416
:1025C000022903D00421816301243DE001680A68E7
:1025D00022F00E020A6001680A6822F001020A6015
:1025E0001A4A0168914201D1012121E0174A1432AF
:1025F000914201D110211BE0144A2832914201D1AD
:10260000891515E0114A3C32914201D189140FE03D
:102610000E4A5032914202D14FF4803108E00B4A09
:102620006432914202D14FF4801101E04FF0807189
:10263000064A083A5160012180F82110002180F8F3
:102640002010416B01B18847204610BD08000240B0
:1026500070B5044600F07AFA0546601C02D00448C2
:102660000078044400F072FA401BA042FAD370BD17
:10267000140100202DE9F047054626480F460126A3
:10268000017E01290FD00121814601762868DFF8FB
:1026900088804CF25034022808D0A2462046FFF72A
:1026A00003FFA8B131E00220BDE8F0872046FFF724
:1026B000FBFE08BB0120FFF797FE2046FFF7F4FE64
:1026C000D8F81010064621F00401C8F810101CE0DC
:1026D0004FF0FF303860AC6811E02046FFF796FEFF
:1026E0005046FFF7E1FED8F81010060021F0020175
:1026F000C8F8101001D03C6007E004F58064D5E90B
:10270000020100EB8120A042E7D8002189F81810CF
:102710003046C9E7383800200020024003480169EC
:1027200041F080010161002070470000002002405C
:102730002DE9F05F07461C4888460024017E1546B7
:102740001E46012909D00121814601764CF2503AFA
:102750005046FFF7A9FE18B122E00220BDE8F09F25
:10276000012F02D0022F00D00427D346DFF83CA06F
:10277000220128463146FDF75DFD81B208EB440099
:10278000FFF756FE5846FFF78FFEDAF8102022F0CA
:102790000102CAF8102018B9641CE4B2BC42E7D3A5
:1027A000002289F81820D9E738380020002002409C
:1027B000064900200A69120607D5054A4A60054AFB
:1027C0004A600969090600D50120704700200240CF
:1027D00023016745AB89EFCD2DE9F041074600F0B5
:1027E000B5F9DFF844810126002408F18005C8F816
:1027F0005800202F16D0102F24D0082F31D0042FAE
:1028000040D04A4A402F4BD0802F19D1D8F85410CD
:10281000401A0A2814D980211746104600F08CF976
:1028200078B376E0D8F85410411A642908D9C5E97C
:102830000164EC602C61AC61C8F85400C8E90A641A
:10284000BDE8F081D8F85410411A6429F8D9C5E9D7
:102850000146EC602C616C61C8F85400C8E90A4676
:10286000EEE7D8F85410411AC829E9D96C60C5E9D7
:1028700002462C616C61AC61C8F82840C8F82C4055
:102880000BE036E0D8F85410411AC829D8D96C604A
:10289000AC60C5E903466C61AC61C8F85400CFE791
:1028A000D8F85410401A0A28CAD9402117461046B1
:1028B00000F042F988B9AC60C8F84060C8F83860E8
:1028C000C8F828406E61324619491A48EC60FFF793
:1028D00015FED8F85800C8F854004021384600F0DA
:1028E0002BF90028ACD06C61C8F84040C8F83840DB
:1028F000A6E76C60C8F83C60C8F82C40AE61324670
:102900000D490E48EC60FFF7F9FDD8F85800C8F8FB
:1029100054008021384600F00FF9002890D0AC61B7
:10292000C8F83C408CE70000180000200008014077
:102930000FF8010810F001080FF0000810E8000877
:10294000044910B50A68024202D00860FFF744FF4C
:1029500010BD0000140401402DE9F84FDFF8B891D4
:10296000002409F1040A0AF1040B23460F270BF196
:10297000040EC9E00125A5402A40AA427DD1674E38
:10298000D1F804C0ACEB0608B44532D014DCBCF17D
:10299000030F3AD009DCBCF1000F2AD0BCF1010FC3
:1029A0001CD0BCF1020F31D11DE0BCF1110F17D0CA
:1029B000BCF1120F2AD119E0B8F5881F19D006DC36
:1029C000B8F5803F15D0B8F5801F1FD111E0B8F5DC
:1029D000001F0ED0B8F5041F18D10AE0CB6815E02F
:1029E000CB681B1D12E0CB6808330FE0CB680C33BB
:1029F0000CE08B682BB1012B4FF0080303D045612D
:102A000004E0042302E0056100E00023FF2A01D86E
:102A1000064601E000F104064FEA840501D9A5F15C
:102A20002005D6F8008007FA05FC28EA0C0803FA0E
:102A300005F548EA0508C6F800804D68ED0062D546
:102A4000374DAE6946F00106AE61AD6924F003066C
:102A500005F001050095334D06EB050CDCF8085038
:102A6000A607360F07FA06F825EA0805DFF8B8804A
:102A7000404503D14FF0000817E044E0DFF8AC8098
:102A8000404502D14FF001080FE0DFF8A480404537
:102A900002D14FF0020808E0DFF89880404502D1EB
:102AA0004FF0030801E04FF0040808FA06F848EA7E
:102AB0000508CCF808804D68D9F80060ED034D4654
:102AC00001D5164300E096432E604D68DAF80060A9
:102AD000AD03554601D5164300E096432E604D6880
:102AE000DBF80060ED025D4601D5164300E0964339
:102AF0002E604D68DEF80060AD02754601D51643C4
:102B000000E096432E60641C0D682A46E5407FF481
:102B100031AFBDE8F88F0000000401400000111043
:102B2000001002400000014000080140000C01407C
:102B300000100140001401408068084000D00120CE
:102B400070470AB1016170470904FBE701488068DA
:102B5000704700001401002070B5040025D094F8DF
:102B60003D00002520B984F83C50204600F004FACE
:102B7000242084F83D002068016821F001010160F3
:102B80002068016841F4004101602068016821F477
:102B90000041016001F090F84D4A6168914201D80E
:102BA0004C4900E04C49884201D2012070BD4B499C
:102BB0002368B0FBF1F15E6826F03F060E435E60CD
:102BC0006368934206D94FF4967359434FF47A736E
:102BD000B1FBF3F12368491C1E6A26F03F0631431E
:102BE00019626168914210D84900401EB0FBF1F2B1
:102BF000521CC2F30B02042A01D2042022E0B0FBD3
:102C0000F1F0401CC0F30B001CE0A268F2B301EB32
:102C1000C10303EB0116431EB3FBF6F35B1C43F445
:102C200080431B0549D092B301EBC10202EB0111B5
:102C3000401EB0FBF1F0401CC0F30B0040F480409C
:102C400040F400402168CA694CF6FF739A43104370
:102C5000C861D4E9071001432068026822F0C0026D
:102C600011430160D4E9030101432068826848F2FE
:102C7000FF339A4311438160D4E905010843216879
:102C8000CA6822F0FF021043C86001E00EE016E0BF
:102C90002068016841F0010101602564202084F86A
:102CA0003D00256384F83E50002070BD01EB4106D5
:102CB000431EB3FBF6F35B1CB3E70120C2E701EB55
:102CC0004101401EB0FBF1F0401CC0F30B00B7E720
:102CD000A086010080841E0000093D0040420F00D4
:102CE0002DE9FF4F81B089460446FFF72FFF0546C7
:102CF00094F83D004FF0010820287DD119230122CE
:102D000050492046009502F0DDFF002874D194F868
:102D10003C00012870D0012084F83C002068016844
:102D2000C90703D1016841F0010101602068016811
:102D300021F400610160242084F83D00002626640F
:102D40004148E0624FF0011B20272068016841F4F0
:102D5000807101600095002259462046049B02F0D4
:102D6000B1FF50B120680068C00502D54FF4007073
:102D70002064032005B0BDE8F08F216809F0FE0053
:102D80000861FFF7E3FE2168054648694969C0F319
:102D90004000C1F380214FF0A00A0FE0FFF7D6FEFC
:102DA000411B0498814200D808B984F83DA02168ED
:102DB00048694969C0F34000C1F3802194F83D207F
:102DC000A02A02D008B90029E8D084F83D70206814
:102DD0004169C943890716D4016841F40071016053
:102DE000206841698069192301221649204600950F
:102DF00002F068FFB8B900E021E084F83D7084F883
:102E00003C600020B6E7016841F400710160216870
:102E10006FF480604861192301220A492046009519
:102E200002F050FF08B10120A4E7039808F101085F
:102E300080458AD384F83D7084F83C60F3E7022033
:102E400098E70000020010000000FFFF2DE9F84F96
:102E50001F4690468A460446DDF82890FFF776FE26
:102E6000054694F83D0020287FD1192301224049CE
:102E70002046009502F026FF002876D194F83C0009
:102E8000012872D0012084F83C0020680168C9073D
:102E900003D1016841F0010101602068016821F45B
:102EA00000610160212084F83D00102084F83E007C
:102EB00000262664C4F824806785608D20852D480F
:102EC000E0622B464A465146204602F087FE90B902
:102ED000206841698069009036E02A4649462046CC
:102EE00002F06FFF50B1206C042804D12068016803
:102EF00041F4007101600120BDE8F88F606A21682B
:102F000000780861606A401C6062618D491E6185BD
:102F1000218D491E89B2218522685369DB435B07F5
:102F20000BD451B100781061606A401C6062608D02
:102F3000401E6085208D401E20852A464946204639
:102F400002F09AFE0028CED1208D0028C5D154F879
:102F50003D0B016841F400710160202004F81E0956
:102F6000E67766770020C7E7FFE70220C4E70000A6
:102F7000020010000000FFFF10B586B00021009194
:102F800001910291039100680F4988421AD10F4CB8
:102F9000A06940F00800A061A069694600F008003F
:102FA0000490C02000901220019003200390084854
:102FB000FFF7D2FCE06940F40010E061E06900F442
:102FC0000010049006B010BD0054004000100240F4
:102FD000000C01400248816802781144816070470A
:102FE00014010020074810B5016841F0100101608C
:102FF000032000F075F8012000F006F800F024F836
:10300000002010BD0020024070B50D4D04464FF465
:103010007A712878B1FBF0F00A490968B1FBF0F049
:1030200001F030F848B9102C07D200222146501E7A
:1030300000F036F800206C6070BD012070BD00000B
:1030400014010020200100200C4808B5816941F0DE
:1030500001018161816901F001010091C16941F0C3
:103060008051C161C06900F08050009004484168FF
:1030700021F0E06141F00071416008BD00100240A4
:1030800000000140002809DB00F01F0201219140EF
:103090004009800000F1E020C0F8001170470000F6
:1030A000F0B40E4B1B680C46C3F30223C3F10705B3
:1030B000042D00D90425191D072901D2002300E0A1
:1030C000DB1E012606FA05F1491E214099409E406B
:1030D000761E16403143F0BC06F086B90CED00E0D8
:1030E000064900F0070208684FF6FF03184040EA5F
:1030F0000220034A10430860704700000CED00E016
:103100000000FA0510B50C0607D501F0070101EB28
:10311000810100EBC100283005E001EB810100EBEB
:10312000C10000F5B47099B232B10122027301817D
:10313000190C4181002010BD00220273C180F9E703
:10314000704701EB810200EBC202D0F8E802D26BBB
:1031500004F0D2BF01EB810200EBC202D0F8E8021A
:10316000D2F87C2105F033B870B504460B0601F0A7
:10317000070000EB800104EBC1014FF001024FF0AA
:10318000000503D581F82920283103E081F8695131
:1031900001F5B471087094F8A802012808D084F8E9
:1031A000A822206805F0CEFC84F8A852002070BD4B
:1031B000022070BD70B5044601F00F0062689042B5
:1031C00001D9012070BD0B0601F0070000EB800162
:1031D00004EBC1014FF001024FF0000503D581F867
:1031E0002920283103E081F8695101F5B4718D700F
:1031F000087094F8A802012808D084F8A822206852
:1032000005F03DFD84F8A852002070BD022070BD7D
:103210002DE9F05F04685FEA424C0B788D69B4F8E1
:1032200050C04FF000064BF68F7948F2800A48F6FE
:103230008F7B48F2C00E4FF480672AD54FF002080A
:1032400008EBC308C44407EB4C07E45BC4F3090470
:10325000A54203D32D1B8D6101D00BE08E61066862
:1032600036F8235005EA090585F4005545EA0A05B4
:1032700026F82350520609D50D78036833F8252027
:1032800002EA0B0242EA0E0223F8252084B30A89DF
:1032900029E04FF0060808EBC308C44407EB4C07CD
:1032A000E45BC4F30904A54203D32D1B8D6101D057
:1032B0000BE08E61066836F8235005EA090585F4AF
:1032C000005545EA0A0526F82350520609D40B7822
:1032D000056835F8232002EA0B0242EA0E0225F8BF
:1032E00023202CB14A8949690068234606F036F844
:1032F0002046BDE8F09F2DE9F05F054600680C46CA
:103300005FEA426C16468B692278B0F850C048F6E6
:103310008F774CF280094FF6FF7B4FF4004E4FF44D
:10332000806A4FF000017BD54FF0020808EBC2081D
:10333000E0440AEB480C30F80C00C0F3090083426B
:1033400011D91B1AA3610FD0730407D52E6836F864
:1033500022303B4043EA090326F8223094F8242027
:10336000012A50D04EE1A161607810B1012813D03C
:103370001AE02868B0F85030184400EB0210B0F89A
:10338000042422F4F842A0F80424B0F8042442F4FF
:103390000042A0F8042407E02868B0F85030184430
:1033A00000EB0210A0F804146278286812B1012A18
:1033B00011D018E0B0F850100844217800EB01104B
:1033C000B0F80C1421F4F841A0F80C14B0F80C1467
:1033D00041F4004105E0B0F850201044227800EBA1
:1033E0000210A0F80C1421782846FFF7AAFE7004FA
:1033F000B8D521782A6832F82100384040EA09001F
:1034000022F82100FEE0626902446261E26902443E
:10341000E2612369226A9A4203D31846111A04E032
:1034200038E084F824100AB110462162617811B1A5
:10343000012923D02BE02968B1F8502011442278CB
:1034400001EB021101F2044148B13E280FD84208B5
:10345000C30700D0521C0BEA82220A8017E00A88B8
:1034600022F4F8420A800A8842F40042F5E7420951
:10347000C30600D1521E4EEA8222EEE72968B1F857
:1034800050201144227801EB0211A1F8040483B208
:103490002289B3E04FF0060808EBC208E0440AEBCB
:1034A000480C30F80C00C0F30900834211D31B1AFA
:1034B000A3610FD0730407D42E6836F822303B4046
:1034C00043EA090326F8223094F82420012A50D038
:1034D00098E0A161607810B1012813D01AE0286843
:1034E000B0F85030184400EB0210B0F8042422F475
:1034F000F842A0F80424B0F8042442F40042A0F8F2
:10350000042407E02868B0F85030184400EB02109B
:10351000A0F804146278286812B1012A11D018E0CA
:10352000B0F850100844217800EB0110B0F80C14EA
:1035300021F4F841A0F80C14B0F80C1441F4004147
:1035400005E0B0F850201044227800EB0210A0F8FB
:103550000C1421782846FFF7F4FD700452D4227829
:10356000296831F82200384040EA090021F8220099
:1035700048E0626902446261E2690244E2612369EF
:10358000226A9A4203D31846111A216204E00AB152
:103590001046216284F824106278296812B1012A49
:1035A00022D029E0B1F850201144227801EB021119
:1035B00001F20C4148B13E280FD84208C30700D0A1
:1035C000521C0BEA82220A8016E00A8822F4F84292
:1035D0000A800A8842F40042F5E74209C30600D196
:1035E000521E4EEA8222EEE7B1F8502011442278B2
:1035F00001EB0211A1F80C04628983B261692868A9
:1036000005F0CAFE21782A6832F8210048F6BF7317
:10361000184080F0300048F28003184322F821005F
:103620000020BDE8F09F01F0070101EB810100EBF4
:10363000C100D0F8840170472DE9F04104460F061F
:1036400001F0070000EB800104EBC1014FF001061F
:103650004FF0000503D581F82960283103E081F897
:10366000695101F5B47108700A61CB704A7802B1F2
:10367000C881022B00D10D7194F8A802012809D04D
:1036800084F8A862206805F02FF9284684F8A8522B
:10369000BDE8F0810220FBE770B50C4601F007059C
:1036A00005EB850100EBC101C1E95F230022C1F8F0
:1036B000842181F8692181F8685101F5B4716207AC
:1036C000006805F031FB002070BD70B504460D4662
:1036D00001F007006168884201D9012070BD290608
:1036E0004FF000064FF0010207D500EB800104EB1C
:1036F000C10181F82920283107E005EB850104EBA1
:10370000C10181F8696101F5B4718A70087094F89B
:10371000A802012807D084F8A822206805F0EBFA57
:10372000680702D006E0022070BD04F52C71206805
:1037300005F0A3FA84F8A862002070BD70B50C46AD
:1037400001F0070505EB850100EBC101C1E90F237D
:10375000012281F84C208B6400234B6481F82920DE
:1037600001F8285F6207006805F0DEFA002070BDEE
:103770001FB50446006805F0EDFD000402D52046A3
:1037800003F0BFF9206805F0E5FD40050CD5206881
:1037900030F8441F21F480610180204600F01EF9BA
:1037A0000021204600F035F9206805F0D3FD4004E3
:1037B00005D5206830F8441F21F48041018020683D
:1037C00005F0C8FD800405D5206830F8441F21F4B9
:1037D00000510180206805F0BDFDC00414D52068AB
:1037E00030F8401F21F004010180206830F8401FAC
:1037F00021F008010180204600F003F9206830F82C
:10380000441F21F480510180206805F0A3FD0005CC
:103810003ED522680020694632F8203021F8103069
:10382000401CC0B20828F7D332F8400F40F0010026
:103830001080206830F8402F22F0010202802068BA
:10384000B0F844205205FBD530F8442F22F48062B2
:1038500002800020236831F8102023F82020401C2B
:10386000C0B20828F6D3206830F8401F41F00801A4
:103870000180206830F8441F21F400610180206835
:1038800030F8401F41F004010180204600F0F6F8B6
:10389000206805F05FFD800508D5206830F8441FDA
:1038A00021F400710180204600F0AFF8206805F097
:1038B00051FDC00505D5206830F8441F21F4807102
:1038C00001801FBD2DE9F04186B0040004D094F8BA
:1038D000A902002520B108E0012006B0BDE8F08172
:1038E00084F8A852204600F05BF8032084F8A9026F
:1038F000206805F0BBF904F11001142288466846DF
:10390000FCF775FE94E80F0005F01AF90226D0BB0B
:103910000021206805F038FD002001270FE000BFDE
:1039200000EB800104EBC10181F8297001F8280F38
:10393000C881CD700D614D61401CC0B28D61616860
:103940008142EDD8002011E000EB800104EBC101C1
:1039500081F8695181F8680181F86B51C1F878519B
:10396000C1F87C51401CC0B2C1F8805161688142ED
:10397000EAD8142241466846FCF739FE94E80F0065
:1039800005F06BF910B184F8A962A5E784F824501A
:1039900084F8A972206805F05EF900209DE7000018
:1039A00008B50068A0F18041B1F5B84112D10A48CC
:1039B000C16941F40001C161C06900F400000090D8
:1039C000002211461420FFF76BFBBDE808401420CD
:1039D000FFF758BB08BD00000010024070B5044658
:1039E0000125A068022801D0FEF7FBFC2946D4F887
:1039F000E80204F0DCFCD4F8E802BDE8704004F012
:103A000097BCD0F8E80204F0BCBCD0F8E80204F09F
:103A1000C2BC10B5044690F8A80201280BD00120C2
:103A200084F8A80284F82410206805F0AFFC002078
:103A300084F8A80210BD022010BDD0F8E82200F5DD
:103A40002C71104604F0BFBC10B5044690F8A802D3
:103A5000012810D0012084F8A802206805F06AFC33
:103A600001212046FFF76CFB206805F0F2F80020EA
:103A700084F8A80210BD022010BD000010B5044655
:103A8000D4F8E80204F0E0FCA069002804D0034860
:103A9000016841F00601016010BD000010ED00E07A
:103AA0002DE9F84305460078354CC00754D0E0694D
:103AB0000026C00008D4E06940F08050E061E06971
:103AC000012600F0805000902E480168C90512D4EC
:103AD0000168804641F480710160FFF737F80746BE
:103AE00005E000BFFFF732F8C01B642823D8D8F8E0
:103AF0000000C005F6D5206A10F4407021D0A988D6
:103B000001F4407181421CD0206A1F49012220F437
:103B100040700A6000220A602062C00711D0FFF7DF
:103B200015F8074641F2883808E000BFFFF70EF8A5
:103B3000C11B414502D90320BDE8F883206A8007F4
:103B4000F4D5206A696820F44070084320621EB1F1
:103B5000E06920F08050E0612878800705D5606832
:103B6000A96820F44040084360602878C00605D565
:103B70006068E96820F48000084360600020DBE7AB
:103B80000010024000700040400442422DE9F0471E
:103B90000F46050061D0434E306800F00700B84280
:103BA00009D2306820F0070038433060306800F0F8
:103BB0000700B84251D128683B4C810712D5400715
:103BC00003D5606840F4E06060602878000703D5A2
:103BD000606840F4605060606068A96820F0F000A0
:103BE000084360602878C00728D06868012810D092
:103BF0002168022810D0890700292EDA616821F097
:103C0000030101436160FEF7A1FF804641F288395C
:103C10000DE021688903EFE78901EDE7FEF796FFE4
:103C2000A0EB0801494502D90320BDE8F087606890
:103C3000696800F00C00B0EB810FEFD1306800F044
:103C40000700B8420BD9306820F0070038433060D5
:103C5000306800F00700B84201D00120E5E728787D
:103C6000400705D56068E96820F4E06008436060BB
:103C70002878000706D56068296920F4605040EA7A
:103C8000C100606000F038F86168084AC1F30311B0
:103C9000515CC8400649086006480068FFF7B4F95F
:103CA0000020C2E70020024000100240B4CF00080C
:103CB00020010020180100200448054900684968D7
:103CC000044AC1F30221515CC84070472001002022
:103CD00000100240C4CF0008044805490068496844
:103CE000044AC1F3C221515CC84070472001002042
:103CF00000100240C4CF000812A185B00FC98DE8A2
:103D00000F0014A0144A006804905168134801F091
:103D10000C03042B10D0082B0ED1C1F38343C9032D
:103D20001DF803000AD5516804AAC1F34041515C53
:103D30000A4A5043B0FBF1F005B0704708494843C8
:103D4000FAE7000002030405060708090A0B0C0D38
:103D50000E0F1010010200000010024000127A0045
:103D600000093D002DE9F84F040070D02078C04DC7
:103D7000C00749D06868C0F38100012807D068688F
:103D8000C0F38100022809D16868C00306D52868FD
:103D9000800339D560680028E7D035E06068B0F569
:103DA000803F0BD010B1B0F5A02F11D0286820F4BF
:103DB00080302860286820F4802002E0286840F4E1
:103DC00080302860606890B1FEF7C0FE06460AE0C9
:103DD000286840F480202860F0E700BFFEF7B6FEB8
:103DE000801B642873D828688003F7D50CE0FEF7A1
:103DF000ADFE064605E000BFFEF7A8FE801B642866
:103E0000F0D828688003F7D420789A4E80074FF0C6
:103E100001094FF0000839D5686810F00C0F07D081
:103E20006868C0F38100022809D16868C00306D41D
:103E30002868800714D52069012808D110E020697E
:103E4000B0B1C6F80090FEF781FE074605E00AE132
:103E5000FEF77CFEC01B0228C4D828688007F7D56F
:103E60002868616920F0F80040EAC10028600DE090
:103E7000C6F80080FEF76AFE074604E0FEF766FE1D
:103E8000C01B022823D828688007F7D420780007B1
:103E90002CD57948A169D9B1C0F80090FEF756FE3B
:103EA000074604E0FEF752FEC01B02280FD8686ADE
:103EB0008007F7D571484FF4FA510068B0FBF1F074
:103EC000009000BF0098411E0091FAD20EE080E001
:103ED000C0F80080FEF73AFE074604E0FEF736FE23
:103EE000C01B022875D8686A8007F7D4207840077D
:103EF00060D5E8690027C00008D4E86940F0805028
:103F0000E861E869012700F0805000905C48016892
:103F1000C90513D40168834641F480710160FEF73E
:103F200015FE824606E000BFFEF710FEA0EB0A0079
:103F300064284ED8DBF80000C005F5D5E0680128FC
:103F40000AD008B1052813D0286A20F001002862A1
:103F5000286A20F0040002E0286A40F0010028628C
:103F6000E06841F2883B98B1FEF7F0FD82460BE035
:103F7000286A40F004002862EEE700BFFEF7E6FD85
:103F8000A0EB0A0159455AD8286A8007F6D50CE0FB
:103F9000FEF7DCFD824605E0FEF7D8FDA0EB0A0146
:103FA00059454CD8286A8007F6D41FB1E86920F03B
:103FB0008050E861E06988B36968C1F38101022932
:103FC00044D00228C6F8608004D0FEF7BFFD044646
:103FD00038E034E0FEF7BAFD074604E0FEF7B6FD30
:103FE000C01B02282BD828688001F7D4206AB0F5BE
:103FF000803F05D16868A16820F4003008436860FC
:10400000D4E908010843696821F474110843686021
:10401000C6F86090FEF79AFD044606E025E000BF72
:10402000FEF794FD001B022809D828688001F7D507
:104030001BE000BFFEF78AFD001B022802D9032007
:10404000BDE8F88F28688001F4D40EE00128F7D08D
:104050006868226A00F48031914204D1616A00F4F8
:104060007010884201D00120EAE70020E8E7000054
:104070000010024000004242800442422001002021
:104080000070004010B5401EB0F1807F01D30120C8
:1040900010BD4FF0E02460610F21601705F0A4F916
:1040A0000020A06107202061002010BD70477047EC
:1040B00070B590F83C20012A26D0012480F83C40BD
:1040C000022280F83D2003685A689D6822F070063D
:1040D0000A6832435A600D4B02689A4208D0B2F126
:1040E000804F05D00A4B9A4202D00A4B9A4204D123
:1040F000496825F080031943916080F83D40002114
:1041000080F83C10084670BD022070BD002C0140B4
:10411000000400400008004010B5040003D094F8EB
:104120003D0010B107E0012010BD002084F83C00E4
:10413000204600F01FF8022084F83D00211D206871
:1041400003F09EF9012084F8460084F83E0084F8CC
:104150003F0084F8400084F8410084F8420084F86D
:10416000430084F8440084F8450084F83D000020B2
:1041700010BD000008B51E4A01681E4891420ED1CC
:10418000816941F4006181618069002200F400606E
:10419000009001211B20FEF783FF1B2013E0B1F1EB
:1041A000804F14D0144A914220D1C16941F00201DC
:1041B000C161C069002200F00200009003211D20AF
:1041C000FEF76EFF1D20BDE80840FEF75BBFC1692A
:1041D00041F00101C161C069002200F001000090BE
:1041E00001211C20FEF75CFF1C20ECE708BD00004D
:1041F000002C0140001002400004004090F83D10E7
:10420000012901D001207047022180F83D1000688B
:104210000B49884208D0B0F1804F05D00949884247
:1042200002D00949884204D1816801F007010629BA
:1042300003D0016841F001010160002070470000D7
:10424000002C0140000400400008004070B5044606
:1042500090F83C00012817D0012584F83C5002203A
:1042600084F83D002068826822F0770222F47F42C1
:1042700082600868502830D00DDC20284DD005DC45
:1042800098B310283BD148E0022070BD302844D0BC
:10429000402834D139E0602828D0702806D0B0F505
:1042A000805F2CD0B0F5005F29D10AE0CB68D1E95E
:1042B0000121206803F027F92068816841F0770127
:1042C00009E0CB68D1E90121206803F01CF92068DE
:1042D000816841F48041816011E0CA6849682068C2
:1042E00003F0C6F95021206807E016E0CA68496863
:1042F000206803F0CEF96021206803F00EF984F8FD
:104300003D50002084F83C0070BDCA6849682068B0
:1043100003F0AEF940212068EFE72268014610461D
:10432000EBE7704770B50446006801694FF000057F
:10433000C943890715D4C168C943890711D4E91E47
:10434000016101202077206880698007204602D023
:10435000FFF7E7FF04E000F0BFF8204600F04EF959
:10436000257720680169C943490717D4C168C94343
:10437000490713D46FF004010161022020772068FF
:10438000806910F4407F204602D0FFF7CAFF04E0A6
:1043900000F0A2F8204600F031F925772068016985
:1043A000C943090716D4C168C943090712D46FF07D
:1043B00008010161042020772068C0698007204639
:1043C00002D0FFF7AEFF04E000F086F8204600F0D0
:1043D00015F9257720680169C943C90617D4C16852
:1043E000C943C90613D46FF010010161082020777A
:1043F0002068C06910F4407F204602D0FFF791FF8B
:1044000004E000F069F8204600F0F8F8257720680D
:104410000169C943C90708D1C168C943C90704D1A3
:10442000891E0161204600F071F920680169C943C5
:10443000090609D4C168C943090605D46FF0800193
:1044400001612046FFF732FE20680169C943490631
:1044500009D4C168C943490605D46FF04001016120
:10446000204600F054F920680169C94389060BD43D
:10447000C168C943890607D46FF020010161204655
:10448000BDE87040FFF713BE70BD000000B585B0F9
:104490000021009101910291039100680B4988422B
:1044A00011D10B48816941F0080181618069694639
:1044B00000F0080004900120009002200190039079
:1044C0000448FEF749FA05B000BD000000040040B2
:1044D00000100240000C0140704770B5044690F88F
:1044E0003C000D4601280AD0012084F83C0042B16E
:1044F000042A18D0082A2AD00C2A4DD139E00220EB
:1045000070BD206803F012F82068816941F008014D
:1045100081612068816921F00401816120688169DD
:104520002A69114311E0206803F028F820688169A6
:1045300041F4006181612068816921F480618161B9
:10454000206881692A6941EA0221816124E02068AA
:1045500003F040F82068C16941F00801C16120689A
:10456000C16921F00401C1612068C1692A69114350
:1045700011E0206803F05AF82068C16941F4006135
:10458000C1612068C16921F48061C1612068C1698D
:104590002A6941EA0221C161002084F83C0070BD13
:1045A00010B5040003D094F83D0010B107E00120DD
:1045B00010BD002084F83C00204600F01EF80220C8
:1045C00084F83D00211D206802F05AFF012084F884
:1045D000460084F83E0084F83F0084F8400084F8E8
:1045E000410084F8420084F8430084F8440084F8D1
:1045F000450084F83D00002010BD70477047000062
:1046000010B50446022249B104290ED0082913D05E
:1046100094F84100012816D0012010BD94F83E0006
:104620000128F9D184F83E200FE094F83F000128DA
:10463000F2D184F83F2008E094F840000128EBD143
:1046400084F8402001E084F841200122206802F033
:104650004DFF0F492068884203D1426C42F400426A
:1046600042642068884208D0B0F1804F05D00949E3
:10467000884202D00849884204D1816801F00701CC
:10468000062903D0016841F001010160002010BD3E
:10469000002C0140000400400008004030B50446F2
:1046A0000D460068002202F021FF174B41F2111164
:1046B00020688A10984209D1036A0B4206D1036A26
:1046C000134203D1436C23F4004343642068036A1C
:1046D0000B4206D1016A114203D1016821F00101A8
:1046E000016001203DB1042D08D0082D09D084F8C7
:1046F0004100002030BD84F83E00FAE784F83F0016
:10470000F7E784F84000F4E7002C01407047704759
:1047100070477047F8B5026804461068D16853695D
:1047200010F00F0F4FF0000553D003F0010601F415
:10473000907737435FD0C20705D0CA0503D5226CF6
:1047400042F001022264420705D5DA0703D0226C49
:1047500042F002022264820705D5DA0703D0226CF8
:1047600042F004022264020707D501F0200232431E
:1047700003D0226C42F008022264226C002A34D05A
:10478000800604D5880602D5204602F0B4FF2068D2
:104790004069216CC0F38010090700D430B3204673
:1047A00002F091FF2068416949061BD5416921F05B
:1047B00040014161A06BA8B158494163A06BFDF76E
:1047C000FBFE002811D0A06B416B01B0BDE8F040AA
:1047D000084783060FD58B060DD52046BDE8F84067
:1047E00002F089BF2046FFF794FFF8BD2046FFF78F
:1047F00090FF2564F8BD266B2023012E52D1C606FA
:1048000050D5CE064ED510685068009050694006CD
:104810002AD5A16B086840680004000CEAD0A68D78
:104820008642E7D9E0858869202818D0D06820F42E
:104830008070D0602068416921F0010141612068E9
:10484000416921F04001416184F83E3025632068D0
:10485000C16821F01001C160A06BFDF789FEA08D39
:10486000E18D401A81B219E0A08DE18D401A81B22C
:10487000E08D0028BED00029BCD0D06820F4907014
:10488000D0602068426922F00102426184F83E3023
:1048900025632068C26822F01002C2602046FFF73C
:1048A00037FFF8BD05062BD50D0629D594F83D0038
:1048B0002128F6D1A068B0F5805F01D12069B0B1A0
:1048C000206A411C2162216800784860E08C401E0B
:1048D0000004000CE084E4D12068C16821F080016C
:1048E000C1602068C16841F04001C160F8BD206A24
:1048F0000088C0F308005060206A801C2062E5E751
:104900004006F3D54806F1D5D168204621F0400194
:10491000D16084F83D3000F0ECF8F8BDB7760008BF
:1049200070B5040004D094F83D00002510B106E0F5
:10493000012070BD84F83C50204600F023F824206C
:1049400084F83D002068C16821F40051C160204610
:1049500002F02CFF2068016921F490410161206878
:10496000416921F02A0141612068C16841F4005188
:10497000C1602564202084F83D0084F83E000020BA
:1049800070BD000030B585B00024009401940294FD
:1049900003940068184988422CD11848816941F471
:1049A00080418161816901F480410491816941F014
:1049B000040181618069124D00F0040004904FF4FD
:1049C0000070009002200190032003906946284661
:1049D000FDF7C2FF2815CDE9000469462846029478
:1049E000FDF7BAFF002211462520FEF759FB2520CE
:1049F000FEF748FB05B030BD003801400010024012
:104A00000008014090F83E30202B0ED159B152B130
:104A100090F83C30012B08D0012380F83C30002373
:104A2000036302F01FBF012070470220704700009F
:104A300002490722A1F19800FFF7E4BFA408002073
:104A40002DE9F843044690F83D001F4616460D46F2
:104A500020284CD1C5B1BEB194F83C00012846D005
:104A6000012084F83C004FF00008C4F84080212069
:104A700084F83D00FEF76AF8A6848146E684A068C3
:104A8000B0F5805F03D004E00120BDE8F883206921
:104A900028B12E465FF0000584F83C800EE0002629
:104AA000FAE78021204602F0F8FEA0B9AEB116F870
:104AB000010B21684860E08C401EE084E08C4B468E
:104AC0004FF0000200970028EBD14FF04001204644
:104AD00002F0E3FE30B10320D7E735F8020BC0F354
:104AE0000800E6E7202084F83D000020CDE7022002
:104AF000CBE7704770B500210E2002F05DFA01226D
:104B0000204921A002F064FB0921002002F054FAA0
:104B100001221C4920A002F05BFB00244FF4FA752F
:104B20001821192002F048FA0122214921A002F09F
:104B30004FFB2C21192002F03FFA01221C491FA033
:104B400002F046FB02F058FB2846FDF781FD1821D4
:104B5000192002F031FA012215491AA002F038FB9F
:104B60002C21192002F028FA012211491CA002F080
:104B70002FFB02F041FB6420FDF76AFD641C052C4D
:104B8000CEDB70BD00000020434F46204D656173B1
:104B90007572616D656E74002D2D2D2D2D2D2D2DB1
:104BA0002D2D2D2D2D2D2D2D2D2D2D2D00000000E9
:104BB00008000020596F752041726500417420483B
:104BC0006F6D650020202020202020202020202024
:104BD0002020202020202020202020202000000035
:104BE00020202020202020202020202020202020C5
:104BF00020202020202020200000000010B50021CF
:104C00000E2002F0D9F901221A491BA002F0E0FAA5
:104C10000921002002F0D0F9012216491AA002F061
:104C2000D7FA1521002002F0C7F9012211491CA072
:104C300002F0CEFA1F21002002F0BEF901220D4938
:104C40001CA002F0C5FA2921002002F0B5F90122CA
:104C500008491DA002F0BCFA3321002002F0ACF993
:104C6000012204491CA002F0B3FABDE8104002F092
:104C7000C3BA000000000020434F46204D65617319
:104C80007572616D656E74002D2D2D2D2D2D2D2DC0
:104C90002D2D2D2D2D2D2D2D2D2D2D2D00000000F8
:104CA000436C69636B20413A205365745F486F6DB4
:104CB00065000000436C69636B20423A2052756EB8
:104CC00020434F4600000000436C69636B20433A69
:104CD000204261636B000000436C69636B20443ABF
:104CE00020434F465F5365747570000010B5002176
:104CF000202002F061F90122404941A002F068FA47
:104D00000B21002002F058F901223C4940A002F09A
:104D10005FFA1821002002F04FF90122424943A016
:104D200002F056FA4248C06F06F098FBFDF72AFAE7
:104D30001821222002F040F93D483EA1803002684F
:104D40008038FBF78BFA01223749394802F040FAE4
:104D50002021542002F030F90122284936A002F027
:104D600037FA3421002002F027F90022234933A02A
:104D700002F02EFA3421072002F01EF901221F4909
:104D80002FA002F025FA3421202002F015F900228C
:104D90001A492CA002F01CFA3421272002F00CF949
:104DA0000122164928A002F013FA3421452002F00E
:104DB00003F90022114926A002F00AFA34214C20FE
:104DC00002F0FAF801220D4922A002F001FA342182
:104DD0005C2002F0F1F8002208491FA002F0F8F967
:104DE0003421632002F0E8F8012204491BA002F0FC
:104DF000EFF9BDE8104002F0FFB90000000000200C
:104E0000434F462044495354414E4345000000005F
:104E10002D2D2D2D2D2D2D2D2D2D2D2D2D2D2D2DC2
:104E20002D2D2D2D0000000008000020533D000016
:104E300018000020256400006D6D00006100000076
:104E40003A557000620000003A44574E00000000DE
:104E5000630000003A3C0000640000003A456E74B4
:104E60000000000070B50C460546164600211920CA
:104E700002F0A2F80122164916A002F0A9F90921B0
:104E8000002002F099F80122114915A002F0A0F9C2
:104E90001421002002F090F82A460D4916A002F0D5
:104EA00097F92021002002F087F82246084917A030
:104EB00002F08EF92C21002002F07EF832460449DF
:104EC00016A002F085F9BDE8704002F095B9000027
:104ED00000000020434F462053455454494E47009C
:104EE0002D2D2D2D2D2D2D2D2D2D2D2D2D2D2D2DF2
:104EF0002D2D2D2D000000004368616E6765204355
:104F00004F46205370656564000000004368616E81
:104F100067652044697374616E636500536574202E
:104F20005A65726F0000000010B500210E2002F0DB
:104F300043F80122744975A002F04AF909210020C2
:104F400002F03AF80122704974A002F041F91821E8
:104F5000002002F031F80122764977A002F038F9FA
:104F60001821372002F028F8754C76A17648E26ABD
:104F7000FBF774F901226F49734802F029F91821EF
:104F8000422002F019F801226A4970A002F020F9CB
:104F9000206B64280FDD18214D2002F00DF86A48BF
:104FA00068A10A30226BFBF759F967480122614971
:104FB0000A3002F00DF9206B0B38592818D218214D
:104FC0004D2001F0F9FF01225A4961A002F000F9D9
:104FD0001821582001F0F0FF5B485AA10A30226BDB
:104FE000FBF73CF95848012252490A3002F0F0F828
:104FF000206B0A2818DA18214D2001F0DDFF01226C
:105000004C4954A002F0E4F81821632001F0D4FFC9
:105010004D484CA10A30226BFBF720F94A48012287
:1050200044490A3002F0D4F82A21002001F0C4FFDC
:105030000122404948A002F0CBF82A21372001F094
:10504000BBFF40A14048626BFBF708F901223949D8
:105050003D4802F0BDF82A21422001F0ADFF0122B7
:1050600034493AA002F0B4F8A06B64280FDD2A217D
:105070004D2001F0A1FF344832A10A30A26BFBF7AA
:10508000EDF8314801222B490A3002F0A1F8A06B5B
:105090000B38592818D22A214D2001F08DFF01220A
:1050A00024492BA002F094F82A21582001F084FF13
:1050B000254824A10A30A26BFBF7D0F82248012230
:1050C0001C490A3002F084F8A06B0A2818DA2A2159
:1050D0004D2001F071FF012216491EA002F078F860
:1050E0002A21632001F068FF174816A10A30A26B3D
:1050F000FBF7B4F8144801220E490A3002F068F8B0
:10510000BDE8104002F078B800000020434F462070
:105110004D6561737572616D656E74002D2D2D2D59
:105120002D2D2D2D2D2D2D2D2D2D2D2D2D2D2D2DAF
:105130000000000008000020532E463D2000000023
:105140009800002025640000900800202E00000038
:1051500030000000303000004B2E463D20000000A3
:1051600010B50021202001F027FF01224C494DA05D
:1051700002F02EF80B21002001F01EFF0122484909
:105180004BA002F025F81821002001F015FF0122A4
:105190004D494EA002F01CF84D48C06F06F05EF974
:1051A000FCF7F0FF1821222001F006FF484C49A12E
:1051B00080344948626AFBF751F801224249464867
:1051C00002F006F818212E2001F0F6FE01223E49D9
:1051D00042A001F0FDFF1821392001F0EDFE3E480C
:1051E0003CA10A30A26AFBF739F83B480122364954
:1051F0000A3001F0EDFF2021522001F0DDFE0122F6
:10520000274937A001F0E4FF3421002001F0D4FE4B
:105210000022234934A001F0DBFF3421072001F0F4
:10522000CBFE01221E4931A001F0D2FF3421202003
:1052300001F0C2FE00221A492DA001F0C9FF34215D
:10524000272001F0B9FE012215492AA001F0C0FF74
:105250003421452001F0B0FE0022114927A001F0C1
:10526000B7FF34214C2001F0A7FE01220C4924A0F5
:1052700001F0AEFF34215C2001F09EFE00220849BF
:1052800020A001F0A5FF3421632001F095FE01224A
:1052900003491DA001F09CFFBDE8104001F0ACBF28
:1052A00000000020434F4620535045454400000075
:1052B0002D2D2D2D2D2D2D2D2D2D2D2D2D2D2D2D1E
:1052C0002D2D2D2D0000000008000020563D00006F
:1052D0001800002025640000900800202E00000027
:1052E0006D2F6D696E000000610000003A5570007E
:1052F000620000003A44574E0000000063000000C6
:105300003A3C0000640000003A456E740000000062
:1053100010B50021272001F04FFE01221A491BA0E1
:1053200001F056FF0921002001F046FE0122164936
:1053300018A001F04DFF1521002001F03DFE0122D3
:1053400011491AA001F044FF1F21002001F034FE92
:1053500001220D491AA001F03BFF2921002001F094
:105360002BFE012208491BA001F032FF332100204F
:1053700001F022FE012204491BA001F029FFBDE833
:10538000104001F039BF000000000020434F41549D
:10539000494E47002D2D2D2D2D2D2D2D2D2D2D2D13
:1053A0002D2D2D2D2D2D2D2D00000000436C69631A
:1053B0006B20413A2052756E204657440000000091
:1053C000436C69636B20423A2052756E2042574409
:1053D00000000000436C69636B20433A2053746FF4
:1053E000702F4261636B0000436C69636B20443A29
:1053F000204F70656E204D656E75000010B5002160
:105400000E2001F0D9FD0122114912A001F0E0FEA9
:105410000921002001F0D0FD01220D4911A001F069
:10542000D7FE1821192001F0C7FD0122134914A04D
:1054300001F0CEFE2C21192001F0BEFD01220F4902
:1054400011A001F0C5FEBDE8104001F0D5BE00007E
:1054500000000020434F46204D6561737572616DF9
:10546000656E74002D2D2D2D2D2D2D2D2D2D2D2DD9
:105470002D2D2D2D2D2D2D2D00000000080000209C
:1054800053455454494E4700484F4D452E2E2E004B
:1054900070B50C4605460021122001F08DFD012259
:1054A000354936A001F094FE0921002001F084FD69
:1054B0000122314935A001F08BFE1421002001F0BA
:1054C0007BFD2A462C4937A001F082FE20210020D6
:1054D00001F072FD2246284937A001F079FE3421FF
:1054E000002001F069FD0022234938A001F070FE80
:1054F0003421072001F060FD01221F4934A001F092
:1055000067FE3421202001F057FD00221A4931A006
:1055100001F05EFE3421272001F04EFD01221649E4
:105520002DA001F055FE3421452001F045FD00225B
:1055300011492BA001F04CFE34214C2001F03CFD20
:1055400001220D4927A001F043FE34215C2001F027
:1055500033FD0022084924A001F03AFE34216320E3
:1055600001F02AFD0122044920A001F031FEBDE82E
:10557000704001F041BE000000000020434F415444
:10558000494E47202D20434F460000002D2D2D2D44
:105590002D2D2D2D2D2D2D2D2D2D2D2D2D2D2D2D3B
:1055A00000000000436F6174696E672046756E638A
:1055B00074696F6E00000000434F46204D656173B3
:1055C000756172616D656E7400000000610000001D
:1055D0003A557000620000003A44574E0000000047
:1055E000630000003A3C0000640000003A456E741D
:1055F0000000000070B500210E2001F0DDFC01224A
:10560000204921A001F0E4FD0921002001F0D4FC93
:1056100001221C4920A001F0DBFD00244FF4FA75A3
:105620001821192001F0C8FC0122214921A001F014
:10563000CFFD2C21242001F0BFFC01221C491FA01A
:1056400001F0C6FD01F0D8FD2846FDF701F818214C
:10565000192001F0B1FC012215491AA001F0B8FD92
:105660002C21242001F0A8FC012211491CA001F0EA
:10567000AFFD01F0C1FD6420FCF7EAFF641C052CBE
:10568000CEDB70BD00000020434F46204D656173A6
:105690007572616D656E74002D2D2D2D2D2D2D2DA6
:1056A0002D2D2D2D2D2D2D2D2D2D2D2D00000000DE
:1056B00008000020536574484F4D450046697273D9
:1056C00074000000202020202020202020202020E6
:1056D000202020202020202020202020200000002A
:1056E00020202020202020202020202020202020BA
:1056F00020202020202020200000000010B50021C4
:10570000192001F059FC01221A491BA001F060FD8B
:105710000921002001F050FC0122164919A001F0D6
:1057200057FD14210F2001F047FC012211491BA055
:1057300001F04EFD20210F2001F03EFC01220D4919
:105740001AA001F045FD34215D2001F035FC012255
:1057500008491AA001F03CFD3421002001F02CFC86
:105760000122044917A001F033FDBDE8104001F00B
:1057700043BD000000000020534554205A45524FBD
:10578000000000002D2D2D2D2D2D2D2D2D2D2D2DFD
:105790002D2D2D2D2D2D2D2D000000004D616B6523
:1057A00020737572652070756C6C00004361626CCB
:1057B00065206973206C6F6F73650000443A59650A
:1057C00073000000433A4261636B000010B5002192
:1057D0000A2001F0F1FB01224A494BA001F0F8FC3C
:1057E0000B21002001F0E8FB012246494BA001F00B
:1057F000EFFC1821002001F0DFFB01224D494EA0F3
:1058000001F0E6FC4D4C206AFCF76EFD18212220C9
:1058100001F0D2FB4AA14B48626AFAF71FFD012250
:105820004449484801F0D4FC18212E2001F0C4FB63
:105830000122404944A001F0CBFC1821392001F09D
:10584000BBFB40483EA10A30A26AFAF707FD3D487B
:10585000012238490A3001F0BBFC18214F2001F029
:10586000ABFB0122334939A001F0B2FC3421002006
:1058700001F0A2FB0022234936A001F0A9FC34214B
:10588000072001F099FB01221E4933A001F0A0FC82
:105890003421202001F090FB00221A492FA001F0B2
:1058A00097FC3421272001F087FB012215492CA009
:1058B00001F08EFC3421452001F07EFB00221149CD
:1058C00029A001F085FC34214C2001F075FB012258
:1058D0000C4926A001F07CFC34215C2001F06CFB1B
:1058E0000022084922A001F073FC3421632001F05A
:1058F00063FB012203491FA001F06AFCBDE81040D0
:1059000001F07ABC0000002053504545442041443A
:105910004A5553544D454E54000000002D2D2D2D59
:105920002D2D2D2D2D2D2D2D2D2D2D2D2D2D2D2DA7
:105930000000000008000020563D000098000020F4
:1059400025640000900800202E0000006D2F6D6976
:105950006E000000610000003A5570006200000017
:105960003A44574E00000000630000003A3C00003B
:10597000640000003A456E740000000010B500217C
:10598000162001F019FB0122634964A001F020FCFC
:105990000921002001F010FB01225F4963A001F002
:1059A00017FC14211D2001F007FB01225A4965A0B4
:1059B00001F00EFC01F020FC4FF47A70FCF748FE79
:1059C00014211D2001F0F8FA0122534960A001F0D2
:1059D000FFFB01F011FC4FF4FA742046FCF738FE8F
:1059E00020211D2001F0E8FA01224B494EA001F0D0
:1059F000EFFB01F001FC2046FCF72AFE20211D20D0
:105A000001F0DAFA0122444954A001F0E1FB01F06F
:105A1000F3FB2046FCF71CFE20211D2001F0CCFAF0
:105A200001223D494EA001F0D3FB01F0E5FB2046E9
:105A3000FCF70EFE20211D2001F0BEFA012236499E
:105A400048A001F0C5FB01F0D7FB2046FCF700FEA3
:105A500020211D2001F0B0FA01222F4942A001F0BF
:105A6000B7FB01F0C9FB2046FCF7F2FD20211D2009
:105A700001F0A2FA012228493DA001F0A9FB01F0A2
:105A8000BBFB2046FCF7E4FD20211D2001F094FA29
:105A90000122214938A001F09BFB01F0ADFB20461B
:105AA000FCF7D6FD20211D2001F086FA01221A49BB
:105AB00033A001F08DFB01F09FFB2046FCF7C8FDF1
:105AC00020211D2001F078FA012213492EA001F0B7
:105AD0007FFB01F091FB2046FCF7BAFD20211D2041
